:100000000EC015C014C013C012C011C010C00FC064
:100010000EC00DC00DC00BC00AC009C008C011241D
:100020001FBECFE5D2E0DEBFCDBF0CD037C0E8CFDA
:100030001F920F920FB60F9211240F900FBE0F90C8
:100040001F901895F89487B3836087BB12BE19BCC4
:1000500084E688BD8AB580688ABD8AB580638ABD1A
:100060008AB583608ABD83B7816083BF789480E05E
:1000700087FD09C089BDE3ECF9E03197F1F700C0D5
:1000800000008F5FF5CF80E889BDE3ECF9E03197A0
:10009000F1F700C000008150B9F7ECCFF894FFCF22
:00000001FF
