:100000000EC015C014C014C012C011C010C00FC063
:100010000EC00DC00CC00BC00AC009C008C011241E
:100020001FBECFE5D2E0DEBFCDBF14D070C0E8CF99
:100030001F920F9200905F000F921124CF93DF93D5
:10004000CDB7DEB7DF91CF910F9000925F000F9098
:100050001F901895CF93DF93CDB7DEB7F89487E361
:1000600090E027E330E0F90120812260FC01208349
:100070008FE490E0FC0110828EE490E02FE1FC011F
:1000800020838DE490E02FE1FC01208388E390E061
:1000900028E330E0F90120812D7FFC01208380E5F9
:1000A00090E020E530E0F90120812068FC01208308
:1000B00080E590E020E530E0F90120812F7BFC0114
:1000C000208380E590E020E530E0F90120812F7D5C
:1000D000FC01208380E590E020E530E0F9012081FB
:1000E0002061FC01208380E590E020E530E0F9010B
:1000F00020812F60FC01208389E590E029E530E034
:10010000F90120812064FC0120837894FFCFF894CA
:02011000FFCF1F
:00000001FF
